{
  "contractName": "Employee",
  "abi": [
    {
      "constant": true,
      "inputs": [
        {
          "name": "employeeAadhaar",
          "type": "uint72"
        }
      ],
      "name": "getEmployerAddressByAadhaar",
      "outputs": [
        {
          "name": "",
          "type": "address"
        }
      ],
      "payable": false,
      "stateMutability": "view",
      "type": "function"
    },
    {
      "constant": false,
      "inputs": [
        {
          "name": "employeeAadhaar",
          "type": "uint72"
        }
      ],
      "name": "fire",
      "outputs": [
        {
          "name": "",
          "type": "address"
        }
      ],
      "payable": false,
      "stateMutability": "nonpayable",
      "type": "function"
    },
    {
      "constant": true,
      "inputs": [
        {
          "name": "employeeAddress",
          "type": "address"
        }
      ],
      "name": "getEmployerAddressByAddress",
      "outputs": [
        {
          "name": "",
          "type": "address"
        }
      ],
      "payable": false,
      "stateMutability": "view",
      "type": "function"
    },
    {
      "constant": false,
      "inputs": [
        {
          "name": "aadhaarNo",
          "type": "uint72"
        },
        {
          "name": "employeeAddress",
          "type": "address"
        }
      ],
      "name": "initEmployeeAddress",
      "outputs": [],
      "payable": false,
      "stateMutability": "nonpayable",
      "type": "function"
    },
    {
      "constant": false,
      "inputs": [
        {
          "name": "employerAadhaar",
          "type": "uint72"
        },
        {
          "name": "employeeAadhaar",
          "type": "uint72"
        }
      ],
      "name": "hire",
      "outputs": [],
      "payable": false,
      "stateMutability": "nonpayable",
      "type": "function"
    },
    {
      "constant": true,
      "inputs": [
        {
          "name": "",
          "type": "uint256"
        }
      ],
      "name": "userAadhaar",
      "outputs": [
        {
          "name": "",
          "type": "uint72"
        }
      ],
      "payable": false,
      "stateMutability": "view",
      "type": "function"
    },
    {
      "constant": true,
      "inputs": [
        {
          "name": "aadhaarNo",
          "type": "uint72"
        }
      ],
      "name": "getUserAddressFromAadhaar",
      "outputs": [
        {
          "name": "",
          "type": "address"
        }
      ],
      "payable": false,
      "stateMutability": "view",
      "type": "function"
    }
  ],
  "bytecode": "0x6060604052341561000f57600080fd5b610a328061001e6000396000f300606060405260043610610083576000357c0100000000000000000000000000000000000000000000000000000000900463ffffffff168063026bfbc6146100885780633fa6436d146100f6578063491a110f1461012457806368029b631461019d5780637295e067146101ea5780637f1000611461022c578063e5fbe25b14610279575b600080fd5b341561009357600080fd5b6100b4600480803568ffffffffffffffffff169060200190919050506102e7565b604051808273ffffffffffffffffffffffffffffffffffffffff1673ffffffffffffffffffffffffffffffffffffffff16815260200191505060405180910390f35b341561010157600080fd5b610122600480803568ffffffffffffffffff16906020019091905050610399565b005b341561012f57600080fd5b61015b600480803573ffffffffffffffffffffffffffffffffffffffff16906020019091905050610541565b604051808273ffffffffffffffffffffffffffffffffffffffff1673ffffffffffffffffffffffffffffffffffffffff16815260200191505060405180910390f35b34156101a857600080fd5b6101e8600480803568ffffffffffffffffff1690602001909190803573ffffffffffffffffffffffffffffffffffffffff169060200190919050506105aa565b005b34156101f557600080fd5b61022a600480803568ffffffffffffffffff1690602001909190803568ffffffffffffffffff16906020019091905050610714565b005b341561023757600080fd5b61024d6004808035906020019091905050610916565b604051808268ffffffffffffffffff1668ffffffffffffffffff16815260200191505060405180910390f35b341561028457600080fd5b6102a5600480803568ffffffffffffffffff16906020019091905050610954565b604051808273ffffffffffffffffffffffffffffffffffffffff1673ffffffffffffffffffffffffffffffffffffffff16815260200191505060405180910390f35b600060016000600260008568ffffffffffffffffff1668ffffffffffffffffff16815260200190815260200160002060009054906101000a900473ffffffffffffffffffffffffffffffffffffffff1673ffffffffffffffffffffffffffffffffffffffff1673ffffffffffffffffffffffffffffffffffffffff16815260200190815260200160002060009054906101000a900473ffffffffffffffffffffffffffffffffffffffff169050919050565b3373ffffffffffffffffffffffffffffffffffffffff1660016000600260008568ffffffffffffffffff1668ffffffffffffffffff16815260200190815260200160002060009054906101000a900473ffffffffffffffffffffffffffffffffffffffff1673ffffffffffffffffffffffffffffffffffffffff1673ffffffffffffffffffffffffffffffffffffffff16815260200190815260200160002060009054906101000a900473ffffffffffffffffffffffffffffffffffffffff1673ffffffffffffffffffffffffffffffffffffffff16141561053e57600060016000600260008568ffffffffffffffffff1668ffffffffffffffffff16815260200190815260200160002060009054906101000a900473ffffffffffffffffffffffffffffffffffffffff1673ffffffffffffffffffffffffffffffffffffffff1673ffffffffffffffffffffffffffffffffffffffff16815260200190815260200160002060006101000a81548173ffffffffffffffffffffffffffffffffffffffff021916908373ffffffffffffffffffffffffffffffffffffffff1602179055505b50565b6000600160008373ffffffffffffffffffffffffffffffffffffffff1673ffffffffffffffffffffffffffffffffffffffff16815260200190815260200160002060009054906101000a900473ffffffffffffffffffffffffffffffffffffffff169050919050565b6000600260008468ffffffffffffffffff1668ffffffffffffffffff16815260200190815260200160002060009054906101000a900473ffffffffffffffffffffffffffffffffffffffff1673ffffffffffffffffffffffffffffffffffffffff161480610624575060008268ffffffffffffffffff1614155b80610646575060008173ffffffffffffffffffffffffffffffffffffffff1614155b151561065157600080fd5b6000805480600101828161066591906109a7565b916000526020600020906003918282040191900660090284909190916101000a81548168ffffffffffffffffff021916908368ffffffffffffffffff1602179055505080600260008468ffffffffffffffffff1668ffffffffffffffffff16815260200190815260200160002060006101000a81548173ffffffffffffffffffffffffffffffffffffffff021916908373ffffffffffffffffffffffffffffffffffffffff1602179055505050565b3373ffffffffffffffffffffffffffffffffffffffff16600260008468ffffffffffffffffff1668ffffffffffffffffff16815260200190815260200160002060009054906101000a900473ffffffffffffffffffffffffffffffffffffffff1673ffffffffffffffffffffffffffffffffffffffff1614806107f757506000600260008368ffffffffffffffffff1668ffffffffffffffffff16815260200190815260200160002060009054906101000a900473ffffffffffffffffffffffffffffffffffffffff1673ffffffffffffffffffffffffffffffffffffffff1614155b151561080257600080fd5b600260008368ffffffffffffffffff1668ffffffffffffffffff16815260200190815260200160002060009054906101000a900473ffffffffffffffffffffffffffffffffffffffff1660016000600260008568ffffffffffffffffff1668ffffffffffffffffff16815260200190815260200160002060009054906101000a900473ffffffffffffffffffffffffffffffffffffffff1673ffffffffffffffffffffffffffffffffffffffff1673ffffffffffffffffffffffffffffffffffffffff16815260200190815260200160002060006101000a81548173ffffffffffffffffffffffffffffffffffffffff021916908373ffffffffffffffffffffffffffffffffffffffff1602179055505050565b60008181548110151561092557fe5b9060005260206000209060039182820401919006600902915054906101000a900468ffffffffffffffffff1681565b6000600260008368ffffffffffffffffff1668ffffffffffffffffff16815260200190815260200160002060009054906101000a900473ffffffffffffffffffffffffffffffffffffffff169050919050565b8154818355818115116109dc5760020160039004816002016003900483600052602060002091820191016109db91906109e1565b5b505050565b610a0391905b808211156109ff5760008160009055506001016109e7565b5090565b905600a165627a7a723058209dd8a44852a19cb76c8186066a940ac7a83116c513bdda802a48374da14231f10029",
  "source": "pragma solidity ^0.4.17;\n\ncontract Employee {\n\n     uint72[] public userAadhaar;\n\n     mapping (address => address) hiring;\n     \n     mapping (uint72 => address) userAccounts;\n    \n\n    function initEmployeeAddress (uint72 aadhaarNo, address employeeAddress) public  {\n       \n       require(userAccounts[aadhaarNo] == 0x0 || aadhaarNo != 0 || employeeAddress != 0x0);\n           \n        userAadhaar.push(aadhaarNo) ;   \n        userAccounts[aadhaarNo] = employeeAddress;\n        \n    }\n\n    //function hire(address employerAddress,address employeeAddress) public  {\n    //    hiring[employeeAddress] = employerAddress;\n    // }\n    \n    function hire(uint72 employerAadhaar,uint72 employeeAadhaar) public  {\n        require( userAccounts[employerAadhaar] == msg.sender || userAccounts[employeeAadhaar] != 0x0);\n           \n        hiring[userAccounts[employeeAadhaar]] = userAccounts[employerAadhaar];\n     }\n    \n    function fire(uint72 employeeAadhaar) public  {\n        if(hiring[userAccounts[employeeAadhaar]] == msg.sender)\n            hiring[userAccounts[employeeAadhaar]] = 0x0;\n    }\n    \n    function getEmployerAddressByAddress(address employeeAddress) constant public returns (address) {\n        return (hiring[employeeAddress]);\n    }\n    \n    function getEmployerAddressByAadhaar(uint72 employeeAadhaar) constant public returns (address) {\n        return (hiring[userAccounts[employeeAadhaar]]);\n    }\n    \n     function getUserAddressFromAadhaar(uint72 aadhaarNo) constant public returns (address) {\n        return (userAccounts[aadhaarNo]);\n    }\n\n\n    // function getUserAccounts () constant public returns (uint72[],address[])\n    //  {\n    //     address[] users;\n    //     for ( uint16 i = 0; i < userAadhaar.length; i++ )\n    //       {\n    //          users.push(userAccounts[userAadhaar[i]]);\n    //       }\n        \n    //     return (userAadhaar,users);\n    //  }\n\n}\n\n",
  "sourcePath": "/var/www/html/project/pravasi/pravasi_initial/contracts/User.sol",
  "compiler": {
    "name": "solc",
    "version": "0.4.18+commit.9cf6e910.Emscripten.clang"
  },
  "schemaVersion": "1.0.1",
  "updatedAt": "2017-12-21T15:15:08.852Z"
}