{
  "contractName": "Employee",
  "abi": [
    {
      "constant": false,
      "inputs": [],
      "name": "fire",
      "outputs": [],
      "payable": false,
      "stateMutability": "nonpayable",
      "type": "function"
    },
    {
      "constant": true,
      "inputs": [],
      "name": "getEmployer",
      "outputs": [
        {
          "name": "",
          "type": "address"
        }
      ],
      "payable": false,
      "stateMutability": "view",
      "type": "function"
    },
    {
      "constant": false,
      "inputs": [
        {
          "name": "employeeAddress",
          "type": "address"
        }
      ],
      "name": "initEmployeeAddress",
      "outputs": [],
      "payable": false,
      "stateMutability": "nonpayable",
      "type": "function"
    },
    {
      "constant": false,
      "inputs": [
        {
          "name": "employerAddress",
          "type": "address"
        }
      ],
      "name": "hire",
      "outputs": [],
      "payable": false,
      "stateMutability": "nonpayable",
      "type": "function"
    }
  ],
  "bytecode": "0x6060604052341561000f57600080fd5b6102a38061001e6000396000f300606060405260043610610062576000357c0100000000000000000000000000000000000000000000000000000000900463ffffffff168063457094cc14610067578063a2b299c11461007c578063d4bed261146100d1578063d9d6bd861461010a575b600080fd5b341561007257600080fd5b61007a610143565b005b341561008757600080fd5b61008f610186565b604051808273ffffffffffffffffffffffffffffffffffffffff1673ffffffffffffffffffffffffffffffffffffffff16815260200191505060405180910390f35b34156100dc57600080fd5b610108600480803573ffffffffffffffffffffffffffffffffffffffff169060200190919050506101af565b005b341561011557600080fd5b610141600480803573ffffffffffffffffffffffffffffffffffffffff16906020019091905050610234565b005b60008060006101000a81548173ffffffffffffffffffffffffffffffffffffffff021916908373ffffffffffffffffffffffffffffffffffffffff160217905550565b60008060009054906101000a900473ffffffffffffffffffffffffffffffffffffffff16905090565b60008060006101000a81548173ffffffffffffffffffffffffffffffffffffffff021916908373ffffffffffffffffffffffffffffffffffffffff16021790555080600160006101000a81548173ffffffffffffffffffffffffffffffffffffffff021916908373ffffffffffffffffffffffffffffffffffffffff16021790555050565b806000806101000a81548173ffffffffffffffffffffffffffffffffffffffff021916908373ffffffffffffffffffffffffffffffffffffffff160217905550505600a165627a7a723058200f3d4a394332263c1d034466d0c435906c1fac9d470916fcf2625e76f89417180029",
  "source": "pragma solidity ^0.4.17;\n\ncontract Employee {\n\n    \n    address employer;\n    address employee;\n    \n\n    function initEmployeeAddress (address employeeAddress) public {\n        employer = 0x0;\n        employee = employeeAddress;\n    }\n\n    function hire(address employerAddress) public  {\n        employer = employerAddress;\n     }\n    \n    \n    function fire() public  {\n        employer = 0x0;\n    }\n    \n    function getEmployer() constant public returns (address) {\n        return (employer);\n    }\n\n}\n",
  "sourcePath": "/home/kishan/dev/truffle/pravasi_initial/contracts/Employee.sol",
  "compiler": {
    "name": "solc",
    "version": "0.4.18+commit.9cf6e910.Emscripten.clang"
  },
  "schemaVersion": "1.0.1",
  "updatedAt": "2017-12-17T14:47:26.014Z"
}